{
  "_format": "hh-sol-artifact-1",
  "contractName": "PixelAsset",
  "sourceName": "contracts/PixelAsset.sol",
  "abi": [
    {
      "inputs": [
        {
          "internalType": "uint256",
          "name": "_initialSupply",
          "type": "uint256"
        }
      ],
      "stateMutability": "nonpayable",
      "type": "constructor"
    },
    {
      "inputs": [
        {
          "internalType": "address",
          "name": "",
          "type": "address"
        }
      ],
      "name": "balanceOf",
      "outputs": [
        {
          "internalType": "uint256",
          "name": "",
          "type": "uint256"
        }
      ],
      "stateMutability": "view",
      "type": "function"
    },
    {
      "inputs": [],
      "name": "totalSupply",
      "outputs": [
        {
          "internalType": "uint256",
          "name": "",
          "type": "uint256"
        }
      ],
      "stateMutability": "view",
      "type": "function"
    },
    {
      "inputs": [
        {
          "internalType": "address",
          "name": "to",
          "type": "address"
        },
        {
          "internalType": "uint256",
          "name": "amount",
          "type": "uint256"
        }
      ],
      "name": "transfer",
      "outputs": [],
      "stateMutability": "nonpayable",
      "type": "function"
    }
  ],
  "bytecode": "0x608060405234801561001057600080fd5b50604051610574380380610574833981810160405281019061003291906100be565b8060008190555080600160003373ffffffffffffffffffffffffffffffffffffffff1673ffffffffffffffffffffffffffffffffffffffff16815260200190815260200160002081905550506100eb565b600080fd5b6000819050919050565b61009b81610088565b81146100a657600080fd5b50565b6000815190506100b881610092565b92915050565b6000602082840312156100d4576100d3610083565b5b60006100e2848285016100a9565b91505092915050565b61047a806100fa6000396000f3fe608060405234801561001057600080fd5b50600436106100415760003560e01c806318160ddd1461004657806370a0823114610064578063a9059cbb14610094575b600080fd5b61004e6100b0565b60405161005b9190610219565b60405180910390f35b61007e60048036038101906100799190610297565b6100b6565b60405161008b9190610219565b60405180910390f35b6100ae60048036038101906100a991906102f0565b6100ce565b005b60005481565b60016020528060005260406000206000915090505481565b80600160003373ffffffffffffffffffffffffffffffffffffffff1673ffffffffffffffffffffffffffffffffffffffff168152602001908152602001600020541015610150576040517f08c379a00000000000000000000000000000000000000000000000000000000081526004016101479061038d565b60405180910390fd5b80600160003373ffffffffffffffffffffffffffffffffffffffff1673ffffffffffffffffffffffffffffffffffffffff168152602001908152602001600020600082825461019f91906103dc565b9250508190555080600160008473ffffffffffffffffffffffffffffffffffffffff1673ffffffffffffffffffffffffffffffffffffffff16815260200190815260200160002060008282546101f59190610410565b925050819055505050565b6000819050919050565b61021381610200565b82525050565b600060208201905061022e600083018461020a565b92915050565b600080fd5b600073ffffffffffffffffffffffffffffffffffffffff82169050919050565b600061026482610239565b9050919050565b61027481610259565b811461027f57600080fd5b50565b6000813590506102918161026b565b92915050565b6000602082840312156102ad576102ac610234565b5b60006102bb84828501610282565b91505092915050565b6102cd81610200565b81146102d857600080fd5b50565b6000813590506102ea816102c4565b92915050565b6000806040838503121561030757610306610234565b5b600061031585828601610282565b9250506020610326858286016102db565b9150509250929050565b600082825260208201905092915050565b7f4e6f7420656e6f7567682062616c616e63650000000000000000000000000000600082015250565b6000610377601283610330565b915061038282610341565b602082019050919050565b600060208201905081810360008301526103a68161036a565b9050919050565b7f4e487b7100000000000000000000000000000000000000000000000000000000600052601160045260246000fd5b60006103e782610200565b91506103f283610200565b925082820390508181111561040a576104096103ad565b5b92915050565b600061041b82610200565b915061042683610200565b925082820190508082111561043e5761043d6103ad565b5b9291505056fea26469706673582212204b58b35eb76f67ebd438aa7fd5e8835e1ddcf4ce1446f4c89c732c5bc31fe8f164736f6c63430008140033",
  "linkReferences": {},
  "deployedLinkReferences": {}
}